{
  "_format": "hh-sol-artifact-1",
  "contractName": "Auth",
  "sourceName": "contracts/Auth.sol",
  "abi": [
    {
      "inputs": [
        {
          "internalType": "address",
          "name": "_address",
          "type": "address"
        }
      ],
      "name": "checkIsUserLogged",
      "outputs": [
        {
          "internalType": "bool",
          "name": "",
          "type": "bool"
        }
      ],
      "stateMutability": "view",
      "type": "function"
    },
    {
      "inputs": [
        {
          "internalType": "address",
          "name": "_address",
          "type": "address"
        },
        {
          "internalType": "string",
          "name": "_password",
          "type": "string"
        }
      ],
      "name": "login",
      "outputs": [
        {
          "internalType": "bool",
          "name": "",
          "type": "bool"
        }
      ],
      "stateMutability": "nonpayable",
      "type": "function"
    },
    {
      "inputs": [
        {
          "internalType": "address",
          "name": "_address",
          "type": "address"
        }
      ],
      "name": "logout",
      "outputs": [],
      "stateMutability": "nonpayable",
      "type": "function"
    },
    {
      "inputs": [
        {
          "internalType": "address",
          "name": "_address",
          "type": "address"
        },
        {
          "internalType": "string",
          "name": "_name",
          "type": "string"
        },
        {
          "internalType": "string",
          "name": "_password",
          "type": "string"
        },
        {
          "internalType": "string",
          "name": "_aadhar",
          "type": "string"
        }
      ],
      "name": "register",
      "outputs": [
        {
          "internalType": "bool",
          "name": "",
          "type": "bool"
        }
      ],
      "stateMutability": "nonpayable",
      "type": "function"
    }
  ],
  "bytecode": "0x608060405234801561001057600080fd5b50610af7806100206000396000f3fe608060405234801561001057600080fd5b506004361061004c5760003560e01c8063063d93d814610051578063297f7b39146100815780632f19d50b146100b1578063cc51f9b9146100e1575b600080fd5b61006b60048036038101906100669190610724565b6100fd565b60405161007891906108bc565b60405180910390f35b61009b600480360381019061009691906106a7565b610381565b6040516100a891906108bc565b60405180910390f35b6100cb60048036038101906100c691906106d0565b6103d9565b6040516100d891906108bc565b60405180910390f35b6100fb60048036038101906100f691906106a7565b61052a565b005b60003373ffffffffffffffffffffffffffffffffffffffff166000808773ffffffffffffffffffffffffffffffffffffffff1673ffffffffffffffffffffffffffffffffffffffff16815260200190815260200160002060000160009054906101000a900473ffffffffffffffffffffffffffffffffffffffff1673ffffffffffffffffffffffffffffffffffffffff16141561019957600080fd5b846000808773ffffffffffffffffffffffffffffffffffffffff1673ffffffffffffffffffffffffffffffffffffffff16815260200190815260200160002060000160006101000a81548173ffffffffffffffffffffffffffffffffffffffff021916908373ffffffffffffffffffffffffffffffffffffffff160217905550836000808773ffffffffffffffffffffffffffffffffffffffff1673ffffffffffffffffffffffffffffffffffffffff168152602001908152602001600020600101908051906020019061026e929190610587565b50826000808773ffffffffffffffffffffffffffffffffffffffff1673ffffffffffffffffffffffffffffffffffffffff16815260200190815260200160002060020190805190602001906102c4929190610587565b50816000808773ffffffffffffffffffffffffffffffffffffffff1673ffffffffffffffffffffffffffffffffffffffff168152602001908152602001600020600301908051906020019061031a929190610587565b5060008060008773ffffffffffffffffffffffffffffffffffffffff1673ffffffffffffffffffffffffffffffffffffffff16815260200190815260200160002060040160006101000a81548160ff02191690831515021790555060019050949350505050565b60008060008373ffffffffffffffffffffffffffffffffffffffff1673ffffffffffffffffffffffffffffffffffffffff16815260200190815260200160002060040160009054906101000a900460ff169050919050565b6000816040516020016103ec919061088e565b604051602081830303815290604052805190602001206000808573ffffffffffffffffffffffffffffffffffffffff1673ffffffffffffffffffffffffffffffffffffffff16815260200190815260200160002060020160405160200161045391906108a5565b60405160208183030381529060405280519060200120141561051f5760016000808573ffffffffffffffffffffffffffffffffffffffff1673ffffffffffffffffffffffffffffffffffffffff16815260200190815260200160002060040160006101000a81548160ff0219169083151502179055506000808473ffffffffffffffffffffffffffffffffffffffff1673ffffffffffffffffffffffffffffffffffffffff16815260200190815260200160002060040160009054906101000a900460ff169050610524565b600090505b92915050565b60008060008373ffffffffffffffffffffffffffffffffffffffff1673ffffffffffffffffffffffffffffffffffffffff16815260200190815260200160002060040160006101000a81548160ff02191690831515021790555050565b828054610593906109d8565b90600052602060002090601f0160209004810192826105b557600085556105fc565b82601f106105ce57805160ff19168380011785556105fc565b828001600101855582156105fc579182015b828111156105fb5782518255916020019190600101906105e0565b5b509050610609919061060d565b5090565b5b8082111561062657600081600090555060010161060e565b5090565b600061063d610638846108fc565b6108d7565b90508281526020810184848401111561065557600080fd5b610660848285610996565b509392505050565b60008135905061067781610aaa565b92915050565b600082601f83011261068e57600080fd5b813561069e84826020860161062a565b91505092915050565b6000602082840312156106b957600080fd5b60006106c784828501610668565b91505092915050565b600080604083850312156106e357600080fd5b60006106f185828601610668565b925050602083013567ffffffffffffffff81111561070e57600080fd5b61071a8582860161067d565b9150509250929050565b6000806000806080858703121561073a57600080fd5b600061074887828801610668565b945050602085013567ffffffffffffffff81111561076557600080fd5b6107718782880161067d565b935050604085013567ffffffffffffffff81111561078e57600080fd5b61079a8782880161067d565b925050606085013567ffffffffffffffff8111156107b757600080fd5b6107c38782880161067d565b91505092959194509250565b6107d88161096a565b82525050565b60006107e982610942565b6107f3818561094d565b93506108038185602086016109a5565b80840191505092915050565b6000815461081c816109d8565b610826818661094d565b94506001821660008114610841576001811461085257610885565b60ff19831686528186019350610885565b61085b8561092d565b60005b8381101561087d5781548189015260018201915060208101905061085e565b838801955050505b50505092915050565b600061089a82846107de565b915081905092915050565b60006108b1828461080f565b915081905092915050565b60006020820190506108d160008301846107cf565b92915050565b60006108e16108f2565b90506108ed8282610a0a565b919050565b6000604051905090565b600067ffffffffffffffff82111561091757610916610a6a565b5b61092082610a99565b9050602081019050919050565b60008190508160005260206000209050919050565b600081519050919050565b600081905092915050565b600061096382610976565b9050919050565b60008115159050919050565b600073ffffffffffffffffffffffffffffffffffffffff82169050919050565b82818337600083830152505050565b60005b838110156109c35780820151818401526020810190506109a8565b838111156109d2576000848401525b50505050565b600060028204905060018216806109f057607f821691505b60208210811415610a0457610a03610a3b565b5b50919050565b610a1382610a99565b810181811067ffffffffffffffff82111715610a3257610a31610a6a565b5b80604052505050565b7f4e487b7100000000000000000000000000000000000000000000000000000000600052602260045260246000fd5b7f4e487b7100000000000000000000000000000000000000000000000000000000600052604160045260246000fd5b6000601f19601f8301169050919050565b610ab381610958565b8114610abe57600080fd5b5056fea26469706673582212208604b1c41543c5d55e0448452dca016270fc5ab52f8ca4e3b8f796ea97c72ad964736f6c63430008040033",
  "linkReferences": {},
  "deployedLinkReferences": {}
}