{
  "_format": "hh-sol-artifact-1",
  "contractName": "Auth",
  "sourceName": "contracts/Auth.sol",
  "abi": [
    {
      "inputs": [
        {
          "internalType": "address",
          "name": "_address",
          "type": "address"
        }
      ],
      "name": "checkIsUserLogged",
      "outputs": [
        {
          "internalType": "bool",
          "name": "",
          "type": "bool"
        }
      ],
      "stateMutability": "view",
      "type": "function"
    },
    {
      "inputs": [
        {
          "internalType": "address",
          "name": "_address",
          "type": "address"
        }
      ],
      "name": "isRegistered",
      "outputs": [
        {
          "internalType": "bool",
          "name": "",
          "type": "bool"
        }
      ],
      "stateMutability": "view",
      "type": "function"
    },
    {
      "inputs": [
        {
          "internalType": "address",
          "name": "_address",
          "type": "address"
        },
        {
          "internalType": "string",
          "name": "_password",
          "type": "string"
        }
      ],
      "name": "login",
      "outputs": [
        {
          "internalType": "bool",
          "name": "",
          "type": "bool"
        }
      ],
      "stateMutability": "nonpayable",
      "type": "function"
    },
    {
      "inputs": [
        {
          "internalType": "address",
          "name": "_address",
          "type": "address"
        }
      ],
      "name": "logout",
      "outputs": [],
      "stateMutability": "nonpayable",
      "type": "function"
    },
    {
      "inputs": [
        {
          "internalType": "address",
          "name": "_address",
          "type": "address"
        },
        {
          "internalType": "string",
          "name": "_name",
          "type": "string"
        },
        {
          "internalType": "string",
          "name": "_password",
          "type": "string"
        },
        {
          "internalType": "string",
          "name": "_aadhar",
          "type": "string"
        }
      ],
      "name": "register",
      "outputs": [
        {
          "internalType": "bool",
          "name": "",
          "type": "bool"
        }
      ],
      "stateMutability": "nonpayable",
      "type": "function"
    }
  ],
  "bytecode": "0x608060405234801561001057600080fd5b50610dc6806100206000396000f3fe608060405234801561001057600080fd5b50600436106100575760003560e01c8063063d93d81461005c578063297f7b391461008c5780632f19d50b146100bc578063c3c5a547146100ec578063cc51f9b91461011c575b600080fd5b6100766004803603810190610071919061080c565b610138565b60405161008391906108e2565b60405180910390f35b6100a660048036038101906100a191906108fd565b6103a6565b6040516100b391906108e2565b60405180910390f35b6100d660048036038101906100d1919061092a565b6103fe565b6040516100e391906108e2565b60405180910390f35b610106600480360381019061010191906108fd565b61054e565b60405161011391906108e2565b60405180910390f35b610136600480360381019061013191906108fd565b6105f7565b005b60003373ffffffffffffffffffffffffffffffffffffffff166000808773ffffffffffffffffffffffffffffffffffffffff1673ffffffffffffffffffffffffffffffffffffffff16815260200190815260200160002060000160009054906101000a900473ffffffffffffffffffffffffffffffffffffffff1673ffffffffffffffffffffffffffffffffffffffff16036101d357600080fd5b846000808773ffffffffffffffffffffffffffffffffffffffff1673ffffffffffffffffffffffffffffffffffffffff16815260200190815260200160002060000160006101000a81548173ffffffffffffffffffffffffffffffffffffffff021916908373ffffffffffffffffffffffffffffffffffffffff160217905550836000808773ffffffffffffffffffffffffffffffffffffffff1673ffffffffffffffffffffffffffffffffffffffff16815260200190815260200160002060010190816102a19190610ba7565b50826000808773ffffffffffffffffffffffffffffffffffffffff1673ffffffffffffffffffffffffffffffffffffffff16815260200190815260200160002060020190816102f09190610ba7565b50816000808773ffffffffffffffffffffffffffffffffffffffff1673ffffffffffffffffffffffffffffffffffffffff168152602001908152602001600020600301908161033f9190610ba7565b5060008060008773ffffffffffffffffffffffffffffffffffffffff1673ffffffffffffffffffffffffffffffffffffffff16815260200190815260200160002060040160006101000a81548160ff02191690831515021790555060019050949350505050565b60008060008373ffffffffffffffffffffffffffffffffffffffff1673ffffffffffffffffffffffffffffffffffffffff16815260200190815260200160002060040160009054906101000a900460ff169050919050565b6000816040516020016104119190610cdf565b604051602081830303815290604052805190602001206000808573ffffffffffffffffffffffffffffffffffffffff1673ffffffffffffffffffffffffffffffffffffffff1681526020019081526020016000206002016040516020016104789190610d79565b60405160208183030381529060405280519060200120036105435760016000808573ffffffffffffffffffffffffffffffffffffffff1673ffffffffffffffffffffffffffffffffffffffff16815260200190815260200160002060040160006101000a81548160ff0219169083151502179055506000808473ffffffffffffffffffffffffffffffffffffffff1673ffffffffffffffffffffffffffffffffffffffff16815260200190815260200160002060040160009054906101000a900460ff169050610548565b600090505b92915050565b60008173ffffffffffffffffffffffffffffffffffffffff166000808473ffffffffffffffffffffffffffffffffffffffff1673ffffffffffffffffffffffffffffffffffffffff16815260200190815260200160002060000160009054906101000a900473ffffffffffffffffffffffffffffffffffffffff1673ffffffffffffffffffffffffffffffffffffffff16036105ed57600190506105f2565b600090505b919050565b60008060008373ffffffffffffffffffffffffffffffffffffffff1673ffffffffffffffffffffffffffffffffffffffff16815260200190815260200160002060040160006101000a81548160ff02191690831515021790555050565b6000604051905090565b600080fd5b600080fd5b600073ffffffffffffffffffffffffffffffffffffffff82169050919050565b600061069382610668565b9050919050565b6106a381610688565b81146106ae57600080fd5b50565b6000813590506106c08161069a565b92915050565b600080fd5b600080fd5b6000601f19601f8301169050919050565b7f4e487b7100000000000000000000000000000000000000000000000000000000600052604160045260246000fd5b610719826106d0565b810181811067ffffffffffffffff82111715610738576107376106e1565b5b80604052505050565b600061074b610654565b90506107578282610710565b919050565b600067ffffffffffffffff821115610777576107766106e1565b5b610780826106d0565b9050602081019050919050565b82818337600083830152505050565b60006107af6107aa8461075c565b610741565b9050828152602081018484840111156107cb576107ca6106cb565b5b6107d684828561078d565b509392505050565b600082601f8301126107f3576107f26106c6565b5b813561080384826020860161079c565b91505092915050565b600080600080608085870312156108265761082561065e565b5b6000610834878288016106b1565b945050602085013567ffffffffffffffff81111561085557610854610663565b5b610861878288016107de565b935050604085013567ffffffffffffffff81111561088257610881610663565b5b61088e878288016107de565b925050606085013567ffffffffffffffff8111156108af576108ae610663565b5b6108bb878288016107de565b91505092959194509250565b60008115159050919050565b6108dc816108c7565b82525050565b60006020820190506108f760008301846108d3565b92915050565b6000602082840312156109135761091261065e565b5b6000610921848285016106b1565b91505092915050565b600080604083850312156109415761094061065e565b5b600061094f858286016106b1565b925050602083013567ffffffffffffffff8111156109705761096f610663565b5b61097c858286016107de565b9150509250929050565b600081519050919050565b7f4e487b7100000000000000000000000000000000000000000000000000000000600052602260045260246000fd5b600060028204905060018216806109d857607f821691505b6020821081036109eb576109ea610991565b5b50919050565b60008190508160005260206000209050919050565b60006020601f8301049050919050565b600082821b905092915050565b600060088302610a537fffffffffffffffffffffffffffffffffffffffffffffffffffffffffffffffff82610a16565b610a5d8683610a16565b95508019841693508086168417925050509392505050565b6000819050919050565b6000819050919050565b6000610aa4610a9f610a9a84610a75565b610a7f565b610a75565b9050919050565b6000819050919050565b610abe83610a89565b610ad2610aca82610aab565b848454610a23565b825550505050565b600090565b610ae7610ada565b610af2818484610ab5565b505050565b5b81811015610b1657610b0b600082610adf565b600181019050610af8565b5050565b601f821115610b5b57610b2c816109f1565b610b3584610a06565b81016020851015610b44578190505b610b58610b5085610a06565b830182610af7565b50505b505050565b600082821c905092915050565b6000610b7e60001984600802610b60565b1980831691505092915050565b6000610b978383610b6d565b9150826002028217905092915050565b610bb082610986565b67ffffffffffffffff811115610bc957610bc86106e1565b5b610bd382546109c0565b610bde828285610b1a565b600060209050601f831160018114610c115760008415610bff578287015190505b610c098582610b8b565b865550610c71565b601f198416610c1f866109f1565b60005b82811015610c4757848901518255600182019150602085019450602081019050610c22565b86831015610c645784890151610c60601f891682610b6d565b8355505b6001600288020188555050505b505050505050565b600081905092915050565b60005b83811015610ca2578082015181840152602081019050610c87565b60008484015250505050565b6000610cb982610986565b610cc38185610c79565b9350610cd3818560208601610c84565b80840191505092915050565b6000610ceb8284610cae565b915081905092915050565b60008154610d03816109c0565b610d0d8186610c79565b94506001821660008114610d285760018114610d3d57610d70565b60ff1983168652811515820286019350610d70565b610d46856109f1565b60005b83811015610d6857815481890152600182019150602081019050610d49565b838801955050505b50505092915050565b6000610d858284610cf6565b91508190509291505056fea2646970667358221220be1273e74c1b30dec01544b7eee40f2ba5017992e53442f43142b73db5c0385064736f6c63430008110033",
  "linkReferences": {},
  "deployedLinkReferences": {}
}